{
  "_format": "hh-sol-artifact-1",
  "contractName": "NFT",
  "sourceName": "contracts/NFT.sol",
  "abi": [
    {
      "inputs": [],
      "stateMutability": "nonpayable",
      "type": "constructor"
    },
    {
      "anonymous": false,
      "inputs": [
        {
          "indexed": true,
          "internalType": "address",
          "name": "owner",
          "type": "address"
        },
        {
          "indexed": true,
          "internalType": "address",
          "name": "approved",
          "type": "address"
        },
        {
          "indexed": true,
          "internalType": "uint256",
          "name": "tokenId",
          "type": "uint256"
        }
      ],
      "name": "Approval",
      "type": "event"
    },
    {
      "anonymous": false,
      "inputs": [
        {
          "indexed": true,
          "internalType": "address",
          "name": "owner",
          "type": "address"
        },
        {
          "indexed": true,
          "internalType": "address",
          "name": "operator",
          "type": "address"
        },
        {
          "indexed": false,
          "internalType": "bool",
          "name": "approved",
          "type": "bool"
        }
      ],
      "name": "ApprovalForAll",
      "type": "event"
    },
    {
      "anonymous": false,
      "inputs": [
        {
          "indexed": false,
          "internalType": "address",
          "name": "sender",
          "type": "address"
        },
        {
          "indexed": false,
          "internalType": "uint256",
          "name": "tokenId",
          "type": "uint256"
        }
      ],
      "name": "NewItemMinted",
      "type": "event"
    },
    {
      "anonymous": false,
      "inputs": [
        {
          "indexed": true,
          "internalType": "address",
          "name": "from",
          "type": "address"
        },
        {
          "indexed": true,
          "internalType": "address",
          "name": "to",
          "type": "address"
        },
        {
          "indexed": true,
          "internalType": "uint256",
          "name": "tokenId",
          "type": "uint256"
        }
      ],
      "name": "Transfer",
      "type": "event"
    },
    {
      "inputs": [
        {
          "internalType": "address",
          "name": "to",
          "type": "address"
        },
        {
          "internalType": "uint256",
          "name": "tokenId",
          "type": "uint256"
        }
      ],
      "name": "approve",
      "outputs": [],
      "stateMutability": "nonpayable",
      "type": "function"
    },
    {
      "inputs": [
        {
          "internalType": "address",
          "name": "owner",
          "type": "address"
        }
      ],
      "name": "balanceOf",
      "outputs": [
        {
          "internalType": "uint256",
          "name": "",
          "type": "uint256"
        }
      ],
      "stateMutability": "view",
      "type": "function"
    },
    {
      "inputs": [],
      "name": "generateNFT",
      "outputs": [],
      "stateMutability": "nonpayable",
      "type": "function"
    },
    {
      "inputs": [
        {
          "internalType": "uint256",
          "name": "tokenId",
          "type": "uint256"
        }
      ],
      "name": "getApproved",
      "outputs": [
        {
          "internalType": "address",
          "name": "",
          "type": "address"
        }
      ],
      "stateMutability": "view",
      "type": "function"
    },
    {
      "inputs": [
        {
          "internalType": "address",
          "name": "owner",
          "type": "address"
        },
        {
          "internalType": "address",
          "name": "operator",
          "type": "address"
        }
      ],
      "name": "isApprovedForAll",
      "outputs": [
        {
          "internalType": "bool",
          "name": "",
          "type": "bool"
        }
      ],
      "stateMutability": "view",
      "type": "function"
    },
    {
      "inputs": [],
      "name": "name",
      "outputs": [
        {
          "internalType": "string",
          "name": "",
          "type": "string"
        }
      ],
      "stateMutability": "view",
      "type": "function"
    },
    {
      "inputs": [
        {
          "internalType": "uint256",
          "name": "tokenId",
          "type": "uint256"
        }
      ],
      "name": "ownerOf",
      "outputs": [
        {
          "internalType": "address",
          "name": "",
          "type": "address"
        }
      ],
      "stateMutability": "view",
      "type": "function"
    },
    {
      "inputs": [
        {
          "internalType": "uint256",
          "name": "tokenId",
          "type": "uint256"
        }
      ],
      "name": "pickRandomColor",
      "outputs": [
        {
          "internalType": "string",
          "name": "",
          "type": "string"
        }
      ],
      "stateMutability": "view",
      "type": "function"
    },
    {
      "inputs": [
        {
          "internalType": "uint256",
          "name": "tokenId",
          "type": "uint256"
        }
      ],
      "name": "pickRandomFirstWord",
      "outputs": [
        {
          "internalType": "string",
          "name": "",
          "type": "string"
        }
      ],
      "stateMutability": "view",
      "type": "function"
    },
    {
      "inputs": [
        {
          "internalType": "uint256",
          "name": "tokenId",
          "type": "uint256"
        }
      ],
      "name": "pickRandomSecondWord",
      "outputs": [
        {
          "internalType": "string",
          "name": "",
          "type": "string"
        }
      ],
      "stateMutability": "view",
      "type": "function"
    },
    {
      "inputs": [
        {
          "internalType": "uint256",
          "name": "tokenId",
          "type": "uint256"
        }
      ],
      "name": "pickRandomThirdWord",
      "outputs": [
        {
          "internalType": "string",
          "name": "",
          "type": "string"
        }
      ],
      "stateMutability": "view",
      "type": "function"
    },
    {
      "inputs": [
        {
          "internalType": "address",
          "name": "from",
          "type": "address"
        },
        {
          "internalType": "address",
          "name": "to",
          "type": "address"
        },
        {
          "internalType": "uint256",
          "name": "tokenId",
          "type": "uint256"
        }
      ],
      "name": "safeTransferFrom",
      "outputs": [],
      "stateMutability": "nonpayable",
      "type": "function"
    },
    {
      "inputs": [
        {
          "internalType": "address",
          "name": "from",
          "type": "address"
        },
        {
          "internalType": "address",
          "name": "to",
          "type": "address"
        },
        {
          "internalType": "uint256",
          "name": "tokenId",
          "type": "uint256"
        },
        {
          "internalType": "bytes",
          "name": "_data",
          "type": "bytes"
        }
      ],
      "name": "safeTransferFrom",
      "outputs": [],
      "stateMutability": "nonpayable",
      "type": "function"
    },
    {
      "inputs": [
        {
          "internalType": "address",
          "name": "operator",
          "type": "address"
        },
        {
          "internalType": "bool",
          "name": "approved",
          "type": "bool"
        }
      ],
      "name": "setApprovalForAll",
      "outputs": [],
      "stateMutability": "nonpayable",
      "type": "function"
    },
    {
      "inputs": [
        {
          "internalType": "bytes4",
          "name": "interfaceId",
          "type": "bytes4"
        }
      ],
      "name": "supportsInterface",
      "outputs": [
        {
          "internalType": "bool",
          "name": "",
          "type": "bool"
        }
      ],
      "stateMutability": "view",
      "type": "function"
    },
    {
      "inputs": [],
      "name": "symbol",
      "outputs": [
        {
          "internalType": "string",
          "name": "",
          "type": "string"
        }
      ],
      "stateMutability": "view",
      "type": "function"
    },
    {
      "inputs": [
        {
          "internalType": "uint256",
          "name": "tokenId",
          "type": "uint256"
        }
      ],
      "name": "tokenURI",
      "outputs": [
        {
          "internalType": "string",
          "name": "",
          "type": "string"
        }
      ],
      "stateMutability": "view",
      "type": "function"
    },
    {
      "inputs": [
        {
          "internalType": "address",
          "name": "from",
          "type": "address"
        },
        {
          "internalType": "address",
          "name": "to",
          "type": "address"
        },
        {
          "internalType": "uint256",
          "name": "tokenId",
          "type": "uint256"
        }
      ],
      "name": "transferFrom",
      "outputs": [],
      "stateMutability": "nonpayable",
      "type": "function"
    }
  ],
  "bytecode": "0x608060405260405180610100016040528060d381526020016200455d60d3913960089080519060200190620000369291906200077b565b50604051806080016040528060568152602001620046306056913960099080519060200190620000689291906200077b565b506040518060c001604052806040518060400160405280600481526020017f4a7573740000000000000000000000000000000000000000000000000000000081525081526020016040518060400160405280600a81526020017f446566696e6974656c790000000000000000000000000000000000000000000081525081526020016040518060400160405280600781526020017f436c6561726c790000000000000000000000000000000000000000000000000081525081526020016040518060400160405280600981526020017f4f6276696f75736c79000000000000000000000000000000000000000000000081525081526020016040518060400160405280600681526020017f537572656c79000000000000000000000000000000000000000000000000000081525081526020016040518060400160405280600e81526020017f556e7175657374696f6e61626c79000000000000000000000000000000000000815250815250600a906006620001e69291906200080c565b506040518060a001604052806040518060400160405280600781526020017f4153696d706c650000000000000000000000000000000000000000000000000081525081526020016040518060400160405280600881526020017f41526567756c617200000000000000000000000000000000000000000000000081525081526020016040518060400160405280600681526020017f41506c61696e000000000000000000000000000000000000000000000000000081525081526020016040518060400160405280601081526020017f4153656c664578706c616e61746f72790000000000000000000000000000000081525081526020016040518060400160405280600e81526020017f416e556e6d697374616b61626c65000000000000000000000000000000000000815250815250600b9060056200032992919062000873565b5060405180608001604052806040518060400160405280600381526020017f527567000000000000000000000000000000000000000000000000000000000081525081526020016040518060400160405280600381526020017f4d6174000000000000000000000000000000000000000000000000000000000081525081526020016040518060400160405280600881526020017f546170657374727900000000000000000000000000000000000000000000000081525081526020016040518060400160405280600681526020017f4361727065740000000000000000000000000000000000000000000000000000815250815250600c90600462000431929190620008da565b506040518060c001604052806040518060400160405280600381526020017f726564000000000000000000000000000000000000000000000000000000000081525081526020016040518060400160405280600781526020017f233038433241380000000000000000000000000000000000000000000000000081525081526020016040518060400160405280600581526020017f626c61636b00000000000000000000000000000000000000000000000000000081525081526020016040518060400160405280600681526020017f79656c6c6f77000000000000000000000000000000000000000000000000000081525081526020016040518060400160405280600481526020017f626c75650000000000000000000000000000000000000000000000000000000081525081526020016040518060400160405280600581526020017f677265656e000000000000000000000000000000000000000000000000000000815250815250600d906006620005af9291906200080c565b50348015620005bd57600080fd5b506040518060400160405280600a81526020017f4e6f74415275674e4654000000000000000000000000000000000000000000008152506040518060400160405280600781526020017f4e4f5441525547000000000000000000000000000000000000000000000000008152508160009080519060200190620006429291906200077b565b5080600190805190602001906200065b9291906200077b565b505050620006a96040518060400160405280601581526020017f4e465420636f6e74726163742063726561746564210000000000000000000000815250620006af60201b6200122a1760201c565b62000afb565b6200074f81604051602401620006c6919062000a0f565b6040516020818303038152906040527f41304fac000000000000000000000000000000000000000000000000000000007bffffffffffffffffffffffffffffffffffffffffffffffffffffffff19166020820180517bffffffffffffffffffffffffffffffffffffffffffffffffffffffff83818316178352505050506200075260201b60201c565b50565b60008151905060006a636f6e736f6c652e6c6f679050602083016000808483855afa5050505050565b828054620007899062000a85565b90600052602060002090601f016020900481019282620007ad5760008555620007f9565b82601f10620007c857805160ff1916838001178555620007f9565b82800160010185558215620007f9579182015b82811115620007f8578251825591602001919060010190620007db565b5b50905062000808919062000941565b5090565b82805482825590600052602060002090810192821562000860579160200282015b828111156200085f5782518290805190602001906200084e9291906200077b565b50916020019190600101906200082d565b5b5090506200086f919062000960565b5090565b828054828255906000526020600020908101928215620008c7579160200282015b82811115620008c6578251829080519060200190620008b59291906200077b565b509160200191906001019062000894565b5b509050620008d6919062000960565b5090565b8280548282559060005260206000209081019282156200092e579160200282015b828111156200092d5782518290805190602001906200091c9291906200077b565b5091602001919060010190620008fb565b5b5090506200093d919062000960565b5090565b5b808211156200095c57600081600090555060010162000942565b5090565b5b808211156200098457600081816200097a919062000988565b5060010162000961565b5090565b508054620009969062000a85565b6000825580601f10620009aa5750620009cb565b601f016020900490600052602060002090810190620009ca919062000941565b5b50565b6000620009db8262000a33565b620009e7818562000a3e565b9350620009f981856020860162000a4f565b62000a048162000aea565b840191505092915050565b6000602082019050818103600083015262000a2b8184620009ce565b905092915050565b600081519050919050565b600082825260208201905092915050565b60005b8381101562000a6f57808201518184015260208101905062000a52565b8381111562000a7f576000848401525b50505050565b6000600282049050600182168062000a9e57607f821691505b6020821081141562000ab55762000ab462000abb565b5b50919050565b7f4e487b7100000000000000000000000000000000000000000000000000000000600052602260045260246000fd5b6000601f19601f8301169050919050565b613a528062000b0b6000396000f3fe608060405234801561001057600080fd5b50600436106101165760003560e01c80636352211e116100a2578063b187301f11610071578063b187301f146102f1578063b88d4fde14610321578063c575757a1461033d578063c87b56dd1461036d578063e985e9c51461039d57610116565b80636352211e1461025757806370a082311461028757806395d89b41146102b7578063a22cb465146102d557610116565b806323b872dd116100e957806323b872dd146101b55780632de38d68146101d157806342842e0e14610201578063514dc8c61461021d57806362deda7a1461024d57610116565b806301ffc9a71461011b57806306fdde031461014b578063081812fc14610169578063095ea7b314610199575b600080fd5b6101356004803603810190610130919061262a565b6103cd565b60405161014291906132c8565b60405180910390f35b6101536104af565b60405161016091906132e3565b60405180910390f35b610183600480360381019061017e919061267c565b610541565b6040516101909190613238565b60405180910390f35b6101b360048036038101906101ae91906125ee565b6105c6565b005b6101cf60048036038101906101ca91906124e8565b6106de565b005b6101eb60048036038101906101e6919061267c565b61073e565b6040516101f891906132e3565b60405180910390f35b61021b600480360381019061021691906124e8565b61085c565b005b6102376004803603810190610232919061267c565b61087c565b60405161024491906132e3565b60405180910390f35b61025561099a565b005b610271600480360381019061026c919061267c565b610b94565b60405161027e9190613238565b60405180910390f35b6102a1600480360381019061029c9190612483565b610c46565b6040516102ae9190613543565b60405180910390f35b6102bf610cfe565b6040516102cc91906132e3565b60405180910390f35b6102ef60048036038101906102ea91906125b2565b610d90565b005b61030b6004803603810190610306919061267c565b610da6565b60405161031891906132e3565b60405180910390f35b61033b60048036038101906103369190612537565b610ec4565b005b6103576004803603810190610352919061267c565b610f26565b60405161036491906132e3565b60405180910390f35b6103876004803603810190610382919061267c565b611044565b60405161039491906132e3565b60405180910390f35b6103b760048036038101906103b291906124ac565b611196565b6040516103c491906132c8565b60405180910390f35b60007f80ac58cd000000000000000000000000000000000000000000000000000000007bffffffffffffffffffffffffffffffffffffffffffffffffffffffff1916827bffffffffffffffffffffffffffffffffffffffffffffffffffffffff1916148061049857507f5b5e139f000000000000000000000000000000000000000000000000000000007bffffffffffffffffffffffffffffffffffffffffffffffffffffffff1916827bffffffffffffffffffffffffffffffffffffffffffffffffffffffff1916145b806104a857506104a7826112c3565b5b9050919050565b6060600080546104be906137e2565b80601f01602080910402602001604051908101604052809291908181526020018280546104ea906137e2565b80156105375780601f1061050c57610100808354040283529160200191610537565b820191906000526020600020905b81548152906001019060200180831161051a57829003601f168201915b5050505050905090565b600061054c8261132d565b61058b576040517f08c379a0000000000000000000000000000000000000000000000000000000008152600401610582906134a3565b60405180910390fd5b6004600083815260200190815260200160002060009054906101000a900473ffffffffffffffffffffffffffffffffffffffff169050919050565b60006105d182610b94565b90508073ffffffffffffffffffffffffffffffffffffffff168373ffffffffffffffffffffffffffffffffffffffff161415610642576040517f08c379a000000000000000000000000000000000000000000000000000000000815260040161063990613503565b60405180910390fd5b8073ffffffffffffffffffffffffffffffffffffffff16610661611399565b73ffffffffffffffffffffffffffffffffffffffff161480610690575061068f8161068a611399565b611196565b5b6106cf576040517f08c379a00000000000000000000000000000000000000000000000000000000081526004016106c6906133e3565b60405180910390fd5b6106d983836113a1565b505050565b6106ef6106e9611399565b8261145a565b61072e576040517f08c379a000000000000000000000000000000000000000000000000000000000815260040161072590613523565b60405180910390fd5b610739838383611538565b505050565b6060600061077261074e84611794565b60405160200161075e91906131d2565b604051602081830303815290604052611941565b9050600a8054905081610785919061385d565b9050600a81815481106107c1577f4e487b7100000000000000000000000000000000000000000000000000000000600052603260045260246000fd5b9060005260206000200180546107d6906137e2565b80601f0160208091040260200160405190810160405280929190818152602001828054610802906137e2565b801561084f5780601f106108245761010080835404028352916020019161084f565b820191906000526020600020905b81548152906001019060200180831161083257829003601f168201915b5050505050915050919050565b61087783838360405180602001604052806000815250610ec4565b505050565b606060006108b061088c84611794565b60405160200161089c9190613216565b604051602081830303815290604052611941565b9050600d80549050816108c3919061385d565b9050600d81815481106108ff577f4e487b7100000000000000000000000000000000000000000000000000000000600052603260045260246000fd5b906000526020600020018054610914906137e2565b80601f0160208091040260200160405190810160405280929190818152602001828054610940906137e2565b801561098d5780601f106109625761010080835404028352916020019161098d565b820191906000526020600020905b81548152906001019060200180831161097057829003601f168201915b5050505050915050919050565b60006109a66007611974565b905060006109b38261073e565b905060006109c083610da6565b905060006109cd84610f26565b905060008383836040516020016109e6939291906130cf565b60405160208183030381529060405290506000610a028661087c565b90506000600882600985604051602001610a1f9493929190613100565b60405160208183030381529060405290506000610a6484610a3f84611982565b604051602001610a5092919061318d565b604051602081830303815290604052611982565b9050600081604051602001610a7991906131f4565b6040516020818303038152906040529050610ac86040518060400160405280601581526020017f0a2d2d2d2d2d2d2d2d2d2d2d2d2d2d2d2d2d2d2d2d000000000000000000000081525061122a565b610ad18161122a565b610b0f6040518060400160405280601581526020017f2d2d2d2d2d2d2d2d2d2d2d2d2d2d2d2d2d2d2d2d0a000000000000000000000081525061122a565b610b19338a611b40565b610b238982611b5e565b610b466040518060600160405280602581526020016139b8602591398a33611bd2565b610b506007611c71565b7fe4c037e49d415c94a2a39583f614a8595a2537397cd7026453a866818b71f13d338a604051610b8192919061329f565b60405180910390a1505050505050505050565b6000806002600084815260200190815260200160002060009054906101000a900473ffffffffffffffffffffffffffffffffffffffff169050600073ffffffffffffffffffffffffffffffffffffffff168173ffffffffffffffffffffffffffffffffffffffff161415610c3d576040517f08c379a0000000000000000000000000000000000000000000000000000000008152600401610c3490613423565b60405180910390fd5b80915050919050565b60008073ffffffffffffffffffffffffffffffffffffffff168273ffffffffffffffffffffffffffffffffffffffff161415610cb7576040517f08c379a0000000000000000000000000000000000000000000000000000000008152600401610cae90613403565b60405180910390fd5b600360008373ffffffffffffffffffffffffffffffffffffffff1673ffffffffffffffffffffffffffffffffffffffff168152602001908152602001600020549050919050565b606060018054610d0d906137e2565b80601f0160208091040260200160405190810160405280929190818152602001828054610d39906137e2565b8015610d865780601f10610d5b57610100808354040283529160200191610d86565b820191906000526020600020905b815481529060010190602001808311610d6957829003601f168201915b5050505050905090565b610da2610d9b611399565b8383611c87565b5050565b60606000610dda610db684611794565b604051602001610dc6919061316b565b604051602081830303815290604052611941565b9050600b8054905081610ded919061385d565b9050600b8181548110610e29577f4e487b7100000000000000000000000000000000000000000000000000000000600052603260045260246000fd5b906000526020600020018054610e3e906137e2565b80601f0160208091040260200160405190810160405280929190818152602001828054610e6a906137e2565b8015610eb75780601f10610e8c57610100808354040283529160200191610eb7565b820191906000526020600020905b815481529060010190602001808311610e9a57829003601f168201915b5050505050915050919050565b610ed5610ecf611399565b8361145a565b610f14576040517f08c379a0000000000000000000000000000000000000000000000000000000008152600401610f0b90613523565b60405180910390fd5b610f2084848484611df4565b50505050565b60606000610f5a610f3684611794565b604051602001610f469190613149565b604051602081830303815290604052611941565b9050600c8054905081610f6d919061385d565b9050600c8181548110610fa9577f4e487b7100000000000000000000000000000000000000000000000000000000600052603260045260246000fd5b906000526020600020018054610fbe906137e2565b80601f0160208091040260200160405190810160405280929190818152602001828054610fea906137e2565b80156110375780601f1061100c57610100808354040283529160200191611037565b820191906000526020600020905b81548152906001019060200180831161101a57829003601f168201915b5050505050915050919050565b606061104f8261132d565b61108e576040517f08c379a000000000000000000000000000000000000000000000000000000000815260040161108590613483565b60405180910390fd5b60006006600084815260200190815260200160002080546110ae906137e2565b80601f01602080910402602001604051908101604052809291908181526020018280546110da906137e2565b80156111275780601f106110fc57610100808354040283529160200191611127565b820191906000526020600020905b81548152906001019060200180831161110a57829003601f168201915b505050505090506000611138611e50565b905060008151141561114e578192505050611191565b60008251111561118357808260405160200161116b9291906130ab565b60405160208183030381529060405292505050611191565b61118c84611e67565b925050505b919050565b6000600560008473ffffffffffffffffffffffffffffffffffffffff1673ffffffffffffffffffffffffffffffffffffffff16815260200190815260200160002060008373ffffffffffffffffffffffffffffffffffffffff1673ffffffffffffffffffffffffffffffffffffffff16815260200190815260200160002060009054906101000a900460ff16905092915050565b6112c08160405160240161123e91906132e3565b6040516020818303038152906040527f41304fac000000000000000000000000000000000000000000000000000000007bffffffffffffffffffffffffffffffffffffffffffffffffffffffff19166020820180517bffffffffffffffffffffffffffffffffffffffffffffffffffffffff8381831617835250505050611f0e565b50565b60007f01ffc9a7000000000000000000000000000000000000000000000000000000007bffffffffffffffffffffffffffffffffffffffffffffffffffffffff1916827bffffffffffffffffffffffffffffffffffffffffffffffffffffffff1916149050919050565b60008073ffffffffffffffffffffffffffffffffffffffff166002600084815260200190815260200160002060009054906101000a900473ffffffffffffffffffffffffffffffffffffffff1673ffffffffffffffffffffffffffffffffffffffff1614159050919050565b600033905090565b816004600083815260200190815260200160002060006101000a81548173ffffffffffffffffffffffffffffffffffffffff021916908373ffffffffffffffffffffffffffffffffffffffff160217905550808273ffffffffffffffffffffffffffffffffffffffff1661141483610b94565b73ffffffffffffffffffffffffffffffffffffffff167f8c5be1e5ebec7d5bd14f71427d1e84f3dd0314c0f7b2291e5b200ac8c7c3b92560405160405180910390a45050565b60006114658261132d565b6114a4576040517f08c379a000000000000000000000000000000000000000000000000000000000815260040161149b906133c3565b60405180910390fd5b60006114af83610b94565b90508073ffffffffffffffffffffffffffffffffffffffff168473ffffffffffffffffffffffffffffffffffffffff16148061151e57508373ffffffffffffffffffffffffffffffffffffffff1661150684610541565b73ffffffffffffffffffffffffffffffffffffffff16145b8061152f575061152e8185611196565b5b91505092915050565b8273ffffffffffffffffffffffffffffffffffffffff1661155882610b94565b73ffffffffffffffffffffffffffffffffffffffff16146115ae576040517f08c379a00000000000000000000000000000000000000000000000000000000081526004016115a5906134c3565b60405180910390fd5b600073ffffffffffffffffffffffffffffffffffffffff168273ffffffffffffffffffffffffffffffffffffffff16141561161e576040517f08c379a000000000000000000000000000000000000000000000000000000000815260040161161590613383565b60405180910390fd5b611629838383611f37565b6116346000826113a1565b6001600360008573ffffffffffffffffffffffffffffffffffffffff1673ffffffffffffffffffffffffffffffffffffffff168152602001908152602001600020600082825461168491906136f8565b925050819055506001600360008473ffffffffffffffffffffffffffffffffffffffff1673ffffffffffffffffffffffffffffffffffffffff16815260200190815260200160002060008282546116db9190613617565b92505081905550816002600083815260200190815260200160002060006101000a81548173ffffffffffffffffffffffffffffffffffffffff021916908373ffffffffffffffffffffffffffffffffffffffff160217905550808273ffffffffffffffffffffffffffffffffffffffff168473ffffffffffffffffffffffffffffffffffffffff167fddf252ad1be2c89b69c2b068fc378daa952ba7f163c4a11628f55a4df523b3ef60405160405180910390a4505050565b606060008214156117dc576040518060400160405280600181526020017f3000000000000000000000000000000000000000000000000000000000000000815250905061193c565b600082905060005b6000821461180e5780806117f790613814565b915050600a82611807919061366d565b91506117e4565b60008167ffffffffffffffff811115611850577f4e487b7100000000000000000000000000000000000000000000000000000000600052604160045260246000fd5b6040519080825280601f01601f1916602001820160405280156118825781602001600182028036833780820191505090505b5090505b600085146119355760018261189b91906136f8565b9150600a856118aa919061385d565b60306118b69190613617565b60f81b8183815181106118f2577f4e487b7100000000000000000000000000000000000000000000000000000000600052603260045260246000fd5b60200101907effffffffffffffffffffffffffffffffffffffffffffffffffffffffffffff1916908160001a905350600a8561192e919061366d565b9450611886565b8093505050505b919050565b6000816040516020016119549190613094565b6040516020818303038152906040528051906020012060001c9050919050565b600081600001549050919050565b606060008251905060008114156119ab5760405180602001604052806000815250915050611b3b565b600060036002836119bc9190613617565b6119c6919061366d565b60046119d2919061369e565b905060006020826119e39190613617565b67ffffffffffffffff811115611a22577f4e487b7100000000000000000000000000000000000000000000000000000000600052604160045260246000fd5b6040519080825280601f01601f191660200182016040528015611a545781602001600182028036833780820191505090505b50905060006040518060600160405280604081526020016139dd604091399050600181016020830160005b86811015611af85760038101905062ffffff818a015116603f8160121c168401518060081b905060ff603f83600c1c1686015116810190508060081b905060ff603f8360061c1686015116810190508060081b905060ff603f831686015116810190508060e01b90508084526004840193505050611a7f565b506003860660018114611b125760028114611b2257611b2d565b613d3d60f01b6002830352611b2d565b603d60f81b60018303525b508484525050819450505050505b919050565b611b5a828260405180602001604052806000815250611f3c565b5050565b611b678261132d565b611ba6576040517f08c379a0000000000000000000000000000000000000000000000000000000008152600401611b9d90613443565b60405180910390fd5b80600660008481526020019081526020016000209080519060200190611bcd92919061230f565b505050565b611c6c838383604051602401611bea93929190613305565b6040516020818303038152906040527fe3849f79000000000000000000000000000000000000000000000000000000007bffffffffffffffffffffffffffffffffffffffffffffffffffffffff19166020820180517bffffffffffffffffffffffffffffffffffffffffffffffffffffffff8381831617835250505050611f0e565b505050565b6001816000016000828254019250508190555050565b8173ffffffffffffffffffffffffffffffffffffffff168373ffffffffffffffffffffffffffffffffffffffff161415611cf6576040517f08c379a0000000000000000000000000000000000000000000000000000000008152600401611ced906133a3565b60405180910390fd5b80600560008573ffffffffffffffffffffffffffffffffffffffff1673ffffffffffffffffffffffffffffffffffffffff16815260200190815260200160002060008473ffffffffffffffffffffffffffffffffffffffff1673ffffffffffffffffffffffffffffffffffffffff16815260200190815260200160002060006101000a81548160ff0219169083151502179055508173ffffffffffffffffffffffffffffffffffffffff168373ffffffffffffffffffffffffffffffffffffffff167f17307eab39ab6107e8899845ad3d59bd9653f200f220920489ca2b5937696c3183604051611de791906132c8565b60405180910390a3505050565b611dff848484611538565b611e0b84848484611f97565b611e4a576040517f08c379a0000000000000000000000000000000000000000000000000000000008152600401611e4190613343565b60405180910390fd5b50505050565b606060405180602001604052806000815250905090565b6060611e728261132d565b611eb1576040517f08c379a0000000000000000000000000000000000000000000000000000000008152600401611ea8906134e3565b60405180910390fd5b6000611ebb611e50565b90506000815111611edb5760405180602001604052806000815250611f06565b80611ee584611794565b604051602001611ef69291906130ab565b6040516020818303038152906040525b915050919050565b60008151905060006a636f6e736f6c652e6c6f679050602083016000808483855afa5050505050565b505050565b611f46838361212e565b611f536000848484611f97565b611f92576040517f08c379a0000000000000000000000000000000000000000000000000000000008152600401611f8990613343565b60405180910390fd5b505050565b6000611fb88473ffffffffffffffffffffffffffffffffffffffff166122fc565b15612121578373ffffffffffffffffffffffffffffffffffffffff1663150b7a02611fe1611399565b8786866040518563ffffffff1660e01b81526004016120039493929190613253565b602060405180830381600087803b15801561201d57600080fd5b505af192505050801561204e57506040513d601f19601f8201168201806040525081019061204b9190612653565b60015b6120d1573d806000811461207e576040519150601f19603f3d011682016040523d82523d6000602084013e612083565b606091505b506000815114156120c9576040517f08c379a00000000000000000000000000000000000000000000000000000000081526004016120c090613343565b60405180910390fd5b805181602001fd5b63150b7a0260e01b7bffffffffffffffffffffffffffffffffffffffffffffffffffffffff1916817bffffffffffffffffffffffffffffffffffffffffffffffffffffffff191614915050612126565b600190505b949350505050565b600073ffffffffffffffffffffffffffffffffffffffff168273ffffffffffffffffffffffffffffffffffffffff16141561219e576040517f08c379a000000000000000000000000000000000000000000000000000000000815260040161219590613463565b60405180910390fd5b6121a78161132d565b156121e7576040517f08c379a00000000000000000000000000000000000000000000000000000000081526004016121de90613363565b60405180910390fd5b6121f360008383611f37565b6001600360008473ffffffffffffffffffffffffffffffffffffffff1673ffffffffffffffffffffffffffffffffffffffff16815260200190815260200160002060008282546122439190613617565b92505081905550816002600083815260200190815260200160002060006101000a81548173ffffffffffffffffffffffffffffffffffffffff021916908373ffffffffffffffffffffffffffffffffffffffff160217905550808273ffffffffffffffffffffffffffffffffffffffff16600073ffffffffffffffffffffffffffffffffffffffff167fddf252ad1be2c89b69c2b068fc378daa952ba7f163c4a11628f55a4df523b3ef60405160405180910390a45050565b600080823b905060008111915050919050565b82805461231b906137e2565b90600052602060002090601f01602090048101928261233d5760008555612384565b82601f1061235657805160ff1916838001178555612384565b82800160010185558215612384579182015b82811115612383578251825591602001919060010190612368565b5b5090506123919190612395565b5090565b5b808211156123ae576000816000905550600101612396565b5090565b60006123c56123c08461358f565b61355e565b9050828152602081018484840111156123dd57600080fd5b6123e88482856137a0565b509392505050565b6000813590506123ff8161395b565b92915050565b60008135905061241481613972565b92915050565b60008135905061242981613989565b92915050565b60008151905061243e81613989565b92915050565b600082601f83011261245557600080fd5b81356124658482602086016123b2565b91505092915050565b60008135905061247d816139a0565b92915050565b60006020828403121561249557600080fd5b60006124a3848285016123f0565b91505092915050565b600080604083850312156124bf57600080fd5b60006124cd858286016123f0565b92505060206124de858286016123f0565b9150509250929050565b6000806000606084860312156124fd57600080fd5b600061250b868287016123f0565b935050602061251c868287016123f0565b925050604061252d8682870161246e565b9150509250925092565b6000806000806080858703121561254d57600080fd5b600061255b878288016123f0565b945050602061256c878288016123f0565b935050604061257d8782880161246e565b925050606085013567ffffffffffffffff81111561259a57600080fd5b6125a687828801612444565b91505092959194509250565b600080604083850312156125c557600080fd5b60006125d3858286016123f0565b92505060206125e485828601612405565b9150509250929050565b6000806040838503121561260157600080fd5b600061260f858286016123f0565b92505060206126208582860161246e565b9150509250929050565b60006020828403121561263c57600080fd5b600061264a8482850161241a565b91505092915050565b60006020828403121561266557600080fd5b60006126738482850161242f565b91505092915050565b60006020828403121561268e57600080fd5b600061269c8482850161246e565b91505092915050565b6126ae8161372c565b82525050565b6126bd8161373e565b82525050565b60006126ce826135d4565b6126d881856135ea565b93506126e88185602086016137af565b6126f18161394a565b840191505092915050565b6000612707826135df565b61271181856135fb565b93506127218185602086016137af565b61272a8161394a565b840191505092915050565b6000612740826135df565b61274a818561360c565b935061275a8185602086016137af565b80840191505092915050565b60008154612773816137e2565b61277d818661360c565b9450600182166000811461279857600181146127a9576127dc565b60ff198316865281860193506127dc565b6127b2856135bf565b60005b838110156127d4578154818901526001820191506020810190506127b5565b838801955050505b50505092915050565b60006127f26032836135fb565b91507f4552433732313a207472616e7366657220746f206e6f6e20455243373231526560008301527f63656976657220696d706c656d656e74657200000000000000000000000000006020830152604082019050919050565b6000612858601c836135fb565b91507f4552433732313a20746f6b656e20616c7265616479206d696e746564000000006000830152602082019050919050565b6000612898600a8361360c565b91507f54484952445f574f5244000000000000000000000000000000000000000000006000830152600a82019050919050565b60006128d86024836135fb565b91507f4552433732313a207472616e7366657220746f20746865207a65726f2061646460008301527f72657373000000000000000000000000000000000000000000000000000000006020830152604082019050919050565b600061293e6019836135fb565b91507f4552433732313a20617070726f766520746f2063616c6c6572000000000000006000830152602082019050919050565b600061297e600b8361360c565b91507f5345434f4e445f574f52440000000000000000000000000000000000000000006000830152600b82019050919050565b60006129be602c836135fb565b91507f4552433732313a206f70657261746f7220717565727920666f72206e6f6e657860008301527f697374656e7420746f6b656e00000000000000000000000000000000000000006020830152604082019050919050565b6000612a24600d8361360c565b91507f3c2f746578743e3c2f7376673e000000000000000000000000000000000000006000830152600d82019050919050565b6000612a64607f8361360c565b91507f222c20226465736372697074696f6e223a20224a757374206120636f6c6c656360008301527f74696f6e206f6620727567732e204e6f7468696e6720737573706963696f757360208301527f206f7220746f20626520776f72726965642061626f75742e222c2022696d616760408301527f65223a2022646174613a696d6167652f7376672b786d6c3b6261736536342c006060830152607f82019050919050565b6000612b166038836135fb565b91507f4552433732313a20617070726f76652063616c6c6572206973206e6f74206f7760008301527f6e6572206e6f7220617070726f76656420666f7220616c6c00000000000000006020830152604082019050919050565b6000612b7c602a836135fb565b91507f4552433732313a2062616c616e636520717565727920666f7220746865207a6560008301527f726f2061646472657373000000000000000000000000000000000000000000006020830152604082019050919050565b6000612be26029836135fb565b91507f4552433732313a206f776e657220717565727920666f72206e6f6e657869737460008301527f656e7420746f6b656e00000000000000000000000000000000000000000000006020830152604082019050919050565b6000612c48602e836135fb565b91507f45524337323155524953746f726167653a2055524920736574206f66206e6f6e60008301527f6578697374656e7420746f6b656e0000000000000000000000000000000000006020830152604082019050919050565b6000612cae60028361360c565b91507f227d0000000000000000000000000000000000000000000000000000000000006000830152600282019050919050565b6000612cee6020836135fb565b91507f4552433732313a206d696e7420746f20746865207a65726f20616464726573736000830152602082019050919050565b6000612d2e6031836135fb565b91507f45524337323155524953746f726167653a2055524920717565727920666f722060008301527f6e6f6e6578697374656e7420746f6b656e0000000000000000000000000000006020830152604082019050919050565b6000612d94602c836135fb565b91507f4552433732313a20617070726f76656420717565727920666f72206e6f6e657860008301527f697374656e7420746f6b656e00000000000000000000000000000000000000006020830152604082019050919050565b6000612dfa6029836135fb565b91507f4552433732313a207472616e73666572206f6620746f6b656e2074686174206960008301527f73206e6f74206f776e00000000000000000000000000000000000000000000006020830152604082019050919050565b6000612e60602f836135fb565b91507f4552433732314d657461646174613a2055524920717565727920666f72206e6f60008301527f6e6578697374656e7420746f6b656e00000000000000000000000000000000006020830152604082019050919050565b6000612ec6600a8361360c565b91507f7b226e616d65223a2022000000000000000000000000000000000000000000006000830152600a82019050919050565b6000612f066021836135fb565b91507f4552433732313a20617070726f76616c20746f2063757272656e74206f776e6560008301527f72000000000000000000000000000000000000000000000000000000000000006020830152604082019050919050565b6000612f6c600a8361360c565b91507f46495253545f574f5244000000000000000000000000000000000000000000006000830152600a82019050919050565b6000612fac601d8361360c565b91507f646174613a6170706c69636174696f6e2f6a736f6e3b6261736536342c0000006000830152601d82019050919050565b6000612fec6031836135fb565b91507f4552433732313a207472616e736665722063616c6c6572206973206e6f74206f60008301527f776e6572206e6f7220617070726f7665640000000000000000000000000000006020830152604082019050919050565b600061305260058361360c565b91507f434f4c4f520000000000000000000000000000000000000000000000000000006000830152600582019050919050565b61308e81613796565b82525050565b60006130a08284612735565b915081905092915050565b60006130b78285612735565b91506130c38284612735565b91508190509392505050565b60006130db8286612735565b91506130e78285612735565b91506130f38284612735565b9150819050949350505050565b600061310c8287612766565b91506131188286612735565b91506131248285612766565b91506131308284612735565b915061313b82612a17565b915081905095945050505050565b60006131548261288b565b91506131608284612735565b915081905092915050565b600061317682612971565b91506131828284612735565b915081905092915050565b600061319882612eb9565b91506131a48285612735565b91506131af82612a57565b91506131bb8284612735565b91506131c682612ca1565b91508190509392505050565b60006131dd82612f5f565b91506131e98284612735565b915081905092915050565b60006131ff82612f9f565b915061320b8284612735565b915081905092915050565b600061322182613045565b915061322d8284612735565b915081905092915050565b600060208201905061324d60008301846126a5565b92915050565b600060808201905061326860008301876126a5565b61327560208301866126a5565b6132826040830185613085565b818103606083015261329481846126c3565b905095945050505050565b60006040820190506132b460008301856126a5565b6132c16020830184613085565b9392505050565b60006020820190506132dd60008301846126b4565b92915050565b600060208201905081810360008301526132fd81846126fc565b905092915050565b6000606082019050818103600083015261331f81866126fc565b905061332e6020830185613085565b61333b60408301846126a5565b949350505050565b6000602082019050818103600083015261335c816127e5565b9050919050565b6000602082019050818103600083015261337c8161284b565b9050919050565b6000602082019050818103600083015261339c816128cb565b9050919050565b600060208201905081810360008301526133bc81612931565b9050919050565b600060208201905081810360008301526133dc816129b1565b9050919050565b600060208201905081810360008301526133fc81612b09565b9050919050565b6000602082019050818103600083015261341c81612b6f565b9050919050565b6000602082019050818103600083015261343c81612bd5565b9050919050565b6000602082019050818103600083015261345c81612c3b565b9050919050565b6000602082019050818103600083015261347c81612ce1565b9050919050565b6000602082019050818103600083015261349c81612d21565b9050919050565b600060208201905081810360008301526134bc81612d87565b9050919050565b600060208201905081810360008301526134dc81612ded565b9050919050565b600060208201905081810360008301526134fc81612e53565b9050919050565b6000602082019050818103600083015261351c81612ef9565b9050919050565b6000602082019050818103600083015261353c81612fdf565b9050919050565b60006020820190506135586000830184613085565b92915050565b6000604051905081810181811067ffffffffffffffff821117156135855761358461391b565b5b8060405250919050565b600067ffffffffffffffff8211156135aa576135a961391b565b5b601f19601f8301169050602081019050919050565b60008190508160005260206000209050919050565b600081519050919050565b600081519050919050565b600082825260208201905092915050565b600082825260208201905092915050565b600081905092915050565b600061362282613796565b915061362d83613796565b9250827fffffffffffffffffffffffffffffffffffffffffffffffffffffffffffffffff038211156136625761366161388e565b5b828201905092915050565b600061367882613796565b915061368383613796565b925082613693576136926138bd565b5b828204905092915050565b60006136a982613796565b91506136b483613796565b9250817fffffffffffffffffffffffffffffffffffffffffffffffffffffffffffffffff04831182151516156136ed576136ec61388e565b5b828202905092915050565b600061370382613796565b915061370e83613796565b9250828210156137215761372061388e565b5b828203905092915050565b600061373782613776565b9050919050565b60008115159050919050565b60007fffffffff0000000000000000000000000000000000000000000000000000000082169050919050565b600073ffffffffffffffffffffffffffffffffffffffff82169050919050565b6000819050919050565b82818337600083830152505050565b60005b838110156137cd5780820151818401526020810190506137b2565b838111156137dc576000848401525b50505050565b600060028204905060018216806137fa57607f821691505b6020821081141561380e5761380d6138ec565b5b50919050565b600061381f82613796565b91507fffffffffffffffffffffffffffffffffffffffffffffffffffffffffffffffff8214156138525761385161388e565b5b600182019050919050565b600061386882613796565b915061387383613796565b925082613883576138826138bd565b5b828206905092915050565b7f4e487b7100000000000000000000000000000000000000000000000000000000600052601160045260246000fd5b7f4e487b7100000000000000000000000000000000000000000000000000000000600052601260045260246000fd5b7f4e487b7100000000000000000000000000000000000000000000000000000000600052602260045260246000fd5b7f4e487b7100000000000000000000000000000000000000000000000000000000600052604160045260246000fd5b6000601f19601f8301169050919050565b6139648161372c565b811461396f57600080fd5b50565b61397b8161373e565b811461398657600080fd5b50565b6139928161374a565b811461399d57600080fd5b50565b6139a981613796565b81146139b457600080fd5b5056fe416e204e465420772f20494420257320686173206265656e206d696e74656420746f2025734142434445464748494a4b4c4d4e4f505152535455565758595a6162636465666768696a6b6c6d6e6f707172737475767778797a303132333435363738392b2fa2646970667358221220fe2734c37a076229434a2b4e7e2c3c9630a58ee0bac35b66ff32bf3e55431d1464736f6c634300080000333c73766720786d6c6e733d27687474703a2f2f7777772e77332e6f72672f323030302f73766727207072657365727665417370656374526174696f3d27784d696e594d696e206d656574272076696577426f783d273020302033353020333530273e3c7374796c653e2e62617365207b2066696c6c3a2077686974653b20666f6e742d66616d696c793a2073657269663b20666f6e742d73697a653a20323470783b207d3c2f7374796c653e3c726563742077696474683d273130302527206865696768743d2731303025272066696c6c3d27272f3e3c7465787420783d273530252720793d273530252720636c6173733d27626173652720646f6d696e616e742d626173656c696e653d276d6964646c652720746578742d616e63686f723d276d6964646c65273e",
  "linkReferences": {},
  "deployedLinkReferences": {}
}